:1000000019C02BC02AC029C028C027C026C025C0BF
:1000100024C023C022C021C020C01FC01EC01DC0DC
:100020001CC01BC04AC019C018C017C016C015C0DC
:1000300014C013C011241FBECFEFD4E0DEBFCDBF6C
:1000400011E0A0E0B1E0ECE1F2E002C005900D9219
:10005000A431B107D9F702D0DFC0D2CF87B18C610C
:1000600087B988B18C6088B984B1806C84B9209AD2
:10007000579A8AB180668AB989E190E09093C50069
:100080008093C40088E98093C10086E08093C20019
:1000900080E680937C0080E880937A00789448E042
:1000A00028EC30E088B1842788B980ED97E0F90129
:1000B0003197F1F70197D9F7F5CF1F920F920FB64D
:1000C0000F9211242F933F934F935F936F937F93DE
:1000D0008F939F93AF93BF93EF93FF93F894809187
:1000E000C600813329F488B194E0892788B91DC0FE
:1000F0008233D9F480E091E06FD085E028D085E0AC
:1001000026D090E03FD087E091E066D081E01FD01C
:1001100081E01DD090E036D08DE091E05DD080E0B0
:1001200016D080E014D090E02DD07894FF91EF911C
:10013000BF91AF919F918F917F916F915F914F91FF
:100140003F912F910F900FBE0F901F901895909197
:100150007C00907F90937C0090917C00982B9093F2
:100160007C0080917A00806480937A0080917A008C
:1001700084FDFCCF80917A008F7A80937A00809101
:1001800079000895282F8091C00085FFFCCF822F31
:1001900064E636D0805D8093C6008091C00085FF04
:1001A000FCCF822F64E62CD0892F6AE029D0805DB5
:1001B0008093C6008091C00085FFFCCF822F6AE04B
:1001C0001FD0905D9093C6008091C00085FFFCCF4A
:1001D0008DE08093C6000895FC0107C08091C000A7
:1001E00085FFFCCF9093C600319690819923B1F79B
:1001F0008091C00085FFFCCF8DE08093C6000895FC
:10020000991B79E004C0991F961708F0961B881F68
:0C0210007A95C9F780950895F894FFCF07
:10021C0046524F4E543A004241434B3A00504F57CE
:04022C0045523A00FD
:00000001FF
