:1000000019C020C01FC01EC01DC01CC01BC01AC00C
:1000100019C018C017C016C015C014C013C012C034
:1000200011C010C010C00EC00DC00CC00BC00AC063
:1000300009C008C011241FBECFEFD4E0DEBFCDBF82
:1000400012D032C0DDCF1F920F920FB60F92112443
:100050008F93F8948091C60078948F910F900FBE83
:100060000F901F90189587B18C6187B984B1806C0F
:1000700084B9209A579A8AB180668AB983E390E05E
:100080009093C5008093C40088E98093C10028EC58
:1000900030E088B1809588B980ED97E0F90131971B
:0C00A000F1F70197D9F7F5CFF894FFCFE6
:00000001FF
