:1000000019C033C032C031C030C02FC02EC02DC087
:100010002CC02BC02AC029C028C027C026C025C09C
:1000200024C023C023C021C020C01FC01EC01DC0CB
:100030001CC01BC011241FBECFEFD4E0DEBFCDBF5C
:1000400011E0A0E0B1E0E0ECF3E002C005900D9219
:10005000A431B107D9F711E0A4E1B1E001C01D92CC
:10006000A032B107E1F772D0A9C1CACF1F920F9297
:100070000FB60F9211242F933F934F935F936F937B
:100080007F938F939F93AF93BF93EF93FF93F894D6
:100090008091C600833279F0843218F4813201F500
:1000A00005C08F33A1F08034D9F40FC01092150130
:1000B0001092140126C0E0911501F0E0EA5EFE4FB7
:1000C000108281E0809314011CC064D11AC081E0C9
:1000D00061E040E538D182E061E040E534D111C013
:1000E000E0911501F0E0EA5EFE4F808380911501FA
:1000F0008F5F80931501809115018A3010F0109266
:1001000015017894FF91EF91BF91AF919F918F91DD
:100110007F916F915F914F913F912F910F900FBE03
:100120000F901F90189580E091E0F9D085E0B7D04E
:10013000CCD087E091E0F3D081E0B1D0C6D08DE0A3
:1001400091E0EDD080E0ABD0C0D00895EF92FF9267
:100150000F931F93CF93DF9387B18C6187B988B1D9
:100160008C6088B984B1806C84B9209A579A8AB11E
:1001700080668AB989E190E09093C5008093C400BD
:1001800088E98093C10086E08093C20080E6809376
:100190007C0080E880937A0080917A00806480936C
:1001A0007A0083EA84BD82E085BD17BC18BC7894D0
:1001B00098E0E92E84E0F82E04E61AE0C8ECD0E0DE
:1001C00080911401882309F461C0809116018C3458
:1001D000B9F08D34E9F1813409F056C080911701EE
:1001E000863431F0803541F0823409F04DC002C0D0
:1001F00085E003C081E001C080E051D066D044C0FA
:1002000080911701823419F08235F1F510C0809188
:100210001801833529F0843539F08235A9F502C0FB
:10022000439832C0439A30C088B18E250FC0809168
:100230001801833529F0843539F0823529F502C05B
:10024000429822C0429A20C088B18F2588B91CC02C
:1002500080911701833511F49DD016C0809117014C
:100260006091180120911901E0911A0140911B0140
:100270006053405D209F90011124420FE19FF001E7
:1002800011244E0F80535FD0109214014CDF80ED8B
:1002900097E0FE013197F1F70197D9F791CF90914F
:1002A0007C00907F90937C0090917C00982B9093A1
:1002B0007C0080917A00806480937A0080917A003B
:1002C00086FDFCCF809179000895282F8091C00091
:1002D00085FFFCCF822F64E665D0805D8093C600E9
:1002E0008091C00085FFFCCF822F64E65BD0892F10
:1002F0006AE058D0805D8093C6008091C00085FF81
:10030000FCCF822F6AE04ED0905D9093C600809122
:10031000C00085FFFCCF8DE08093C6000895FC01EE
:1003200007C08091C00085FFFCCF9093C600319636
:1003300090819923B1F78091C00085FFFCCF8DE0BB
:100340008093C6000895823091F448BD613061F019
:10035000613018F06230E9F404C085B18F7385B95B
:1003600008952E982F9A08952E9A2F9808958130E7
:1003700081F447BD613041F0613018F0623049F4DA
:1003800006C028985F98089528985F9A0895289A3B
:100390005F98089517BC18BC85B18F7385B92898EC
:1003A0005F980895991B79E004C0991F961708F08B
:1003B000961B881F7A95C9F780950895F894FFCF0A
:1003C00046524F4E543A004241434B3A00504F5729
:0403D00045523A0058
:00000001FF
