:1000000019C02BC02AC029C028C027C026C025C0BF
:1000100024C023C022C021C020C01FC01EC01DC0DC
:100020001CC01BC058C019C018C017C016C015C0CE
:1000300014C013C011241FBECFEFD4E0DEBFCDBF6C
:1000400011E0A0E0B1E0E0EAF2E002C005900D921C
:10005000A431B107D9F702D021C1D2CF87B18C61C9
:1000600087B988B18C6088B984B1806C84B9209AD2
:10007000579A8AB180668AB989E190E09093C50069
:100080008093C40088E98093C10086E08093C20019
:1000900080E680937C0080E880937A0083EA84BDC8
:1000A00082E085BD17BC18BC789481E062E048EC22
:1000B000BAD082E062E048ECB6D048E028EC30E00C
:1000C00088B1842788B980ED97E0F9013197F1F77D
:1000D0000197D9F7F5CF1F920F920FB60F92112407
:1000E0002F933F934F935F936F937F938F939F9340
:1000F000AF93BF93EF93FF93F8948091C600813341
:1001000029F488B194E0892788B914C0823391F426
:1001100080E091E074D085E01FD047D087E091E087
:100120006ED081E019D041D08DE091E068D080E0C0
:1001300013D03BD07894FF91EF91BF91AF919F91F5
:100140008F917F916F915F914F913F912F910F9080
:100150000FBE0F901F90189590917C00907F909308
:100160007C0090917C00982B90937C0080917A0089
:10017000806480937A0080917A0084FDFCCF809126
:100180007A008F7A80937A0080917A0080648093DD
:100190007A0080917A0084FDFCCF80917A008F7A7A
:1001A00080937A00809179000895282F8091C00073
:1001B00085FFFCCF822F64E665D0805D8093C6000A
:1001C0008091C00085FFFCCF822F64E65BD0892F31
:1001D0006AE058D0805D8093C6008091C00085FFA2
:1001E000FCCF822F6AE04ED0905D9093C600809144
:1001F000C00085FFFCCF8DE08093C6000895FC0110
:1002000007C08091C00085FFFCCF9093C600319657
:1002100090819923B1F78091C00085FFFCCF8DE0DC
:100220008093C6000895823091F447BD613049F053
:10023000613018F06230E9F407C085B18F7385B979
:1002400008952E982F9A08952E9A2F980895813008
:1002500081F448BD613041F0613018F0623049F4FA
:1002600006C028985F98089528985F9A0895289A5C
:100270005F98089517BC18BC85B18F7385B928980D
:100280005F980895991B79E004C0991F961708F0AC
:10029000961B881F7A95C9F780950895F894FFCF2B
:1002A00046524F4E543A004241434B3A00504F574A
:0402B00045523A0079
:00000001FF
