:1000000019C033C032C031C030C02FC02EC02DC087
:100010002CC02BC02AC029C028C027C026C025C09C
:1000200024C023C023C021C020C01FC01EC01DC0CB
:100030001CC01BC011241FBECFEFD4E0DEBFCDBF5C
:1000400011E0A0E0B1E0EEEFF4E002C005900D9207
:10005000A431B107D9F711E0A4E1B1E001C01D92CC
:10006000A632B107E1F75FD048C2CACF1F920F9204
:100070000FB60F9211242F933F934F935F936F937B
:100080007F938F939F93AF93BF93EF93FF93F894D6
:100090008091C600833279F0843218F4813201F500
:1000A00005C08F33A1F08034D9F40FC01092150130
:1000B0001092140126C0E0911501F0E0EA5EFE4FB7
:1000C000108281E0809314011CC005D21AC081E027
:1000D00061E040E5B8D182E061E040E5B4D111C013
:1000E000E0911501F0E0EA5EFE4F808380911501FA
:1000F0008F5F80931501809115018F3010F0109261
:1001000015017894FF91EF91BF91AF919F918F91DD
:100110007F916F915F914F913F912F910F900FBE03
:100120000F901F901895EF92FF920F931F9387B136
:100130008C6187B988B18C6088B984B1806C84B9CE
:10014000209A579A8AB180668AB989E190E09093A3
:10015000C5008093C40088E98093C10086E0809345
:10016000C20080E680937C0080E880937A008091D2
:100170007A00806480937A0083EA84BD82E085BD42
:1001800017BC18BC789498E0E92E84E0F82E04E6B9
:100190001AE0809114018823E1F3809116018C34D8
:1001A000C1F08D3409F440C0813409F0E2C080917F
:1001B0001701863431F0803541F0823409F0D9C01E
:1001C00002C085E003C081E001C080E0E8D0FDD03E
:1001D000D0C080911701823421F0823509F0C9C066
:1001E00011C080911801833531F0843541F082359A
:1001F00009F0BFC002C04398BCC0439ABAC088B1DE
:100200008E2510C080911801833531F0843541F07E
:10021000823509F0AEC002C04298ABC0429AA9C074
:1002200088B18F2588B9A5C080911701843409F45D
:1002300082C0853420F4823409F085C007C080353F
:1002400069F1833509F07FC046D193C060911801F0
:100250008091190120911A0140911B016053405D6A
:10026000809FC0011124480F219F90011124420F4B
:1002700081E0E9D060911C0180911D0120911E0157
:1002800040911F016053405D809FC0011124480FC1
:10029000219F90011124420F82E06AC080911801D1
:1002A000823331F0823431F1813309F062C011C000
:1002B0008091190140911A0120911B01205D809FBE
:1002C000C0011124280F419FA0011124240F28BD33
:1002D00050C08091190140911A0120911B01205DAD
:1002E000809FC0011124280F419FA0011124240FD9
:1002F00027BD3FC02091190140911A0180911B0137
:10030000805D209F90011124820F419FA001112444
:10031000840F87BD2091190140911A0180911B0122
:10032000805D209F90011124820F419FA001112424
:10033000840F88BD1EC0809118016091190160531F
:100340008053A8D016C080911701609118012091A8
:100350001901E0911A0140911B016053405D209FFB
:1003600090011124420FE19FF00111244E0F8053A0
:100370006AD0109214010DCF80E091E050D085E05A
:100380000ED023D087E091E04AD081E008D01DD084
:100390008DE091E044D080E002D017D00895909194
:1003A0007C00907F90937C0090917C00982B9093A0
:1003B0007C0080917A00806480937A0080917A003A
:1003C00086FDFCCF809179000895282F8091C00090
:1003D00085FFFCCF822F64E684D0805D8093C600C9
:1003E0008091C00085FFFCCF822F64E67AD0892FF0
:1003F0006AE077D0805D8093C6008091C00085FF61
:10040000FCCF822F6AE06DD0905D9093C600809102
:10041000C00085FFFCCF8DE08093C6000895FC01ED
:1004200007C08091C00085FFFCCF9093C600319635
:1004300090819923B1F78091C00085FFFCCF8DE0BA
:100440008093C6000895823091F448BD613061F018
:10045000613018F06230E9F404C085B18F7385B95A
:1004600008952E982F9A08952E9A2F9808958130E6
:1004700081F447BD613041F0613018F0623049F4D9
:1004800006C028985F98089528985F9A0895289A3A
:100490005F980895982F613061F0613018F06230F4
:1004A00051F404C085B18F7385B905C02E982F9A79
:1004B00002C02E9A2F98913041F0913018F092306E
:1004C00049F406C028985F98089528985F9A08957F
:1004D000289A5F98089585B18F7385B928985F9899
:1004E0000895991B79E004C0991F961708F0961B90
:0E04F000881F7A95C9F780950895F894FFCF7C
:1004FE0046524F4E543A004241434B3A00504F57EA
:04050E0045523A0018
:00000001FF
