:1000000019C028C027C026C025C024C023C022C0D4
:1000100021C020C01FC01EC01DC01CC01BC01AC0F4
:1000200019C018C05EC016C015C014C013C012C0DD
:1000300011C010C011241FBECFEFD4E0DEBFCDBF72
:1000400011E0A0E0B1E001C01D92A331B107E1F7DA
:10005000A5D045C3D5CF982F8091C00085FFFCCF98
:10006000913059F0913020F0923061F020E010C0D2
:1000700080E087D2282F80E509C085E082D2282F32
:1000800086E404C081E07DD2282F82E48093C600FC
:100090008091C00085FFFCCF822F64E614D3805D81
:1000A0008093C6008091C00085FFFCCF822F64E65C
:1000B0000AD3892F6AE007D3805D8093C6008091C0
:1000C000C00085FFFCCF822F6AE0FDD2905D909347
:1000D000C6008091C00085FFFCCF8DE08093C600F4
:1000E00008951F920F920FB60F9211242F933F93F2
:1000F0004F935F936F937F938F939F93AF93BF9330
:10010000EF93FF93F8948091C600833279F08432A4
:1001100018F4813201F505C08F33A1F08034D9F491
:100120000FC0109201011092000126C0E091010160
:10013000F0E0ED5FFE4F108281E0809300011CC073
:10014000BCD21AC081E061E040E56FD282E061E09C
:1001500040E56BD211C0E0910101F0E0ED5FFE4F90
:100160008083809101018F5F809301018091010163
:100170008F3010F0109201017894FF91EF91BF91B0
:10018000AF919F918F917F916F915F914F913F912F
:100190002F910F900FBE0F901F9018953F924F9286
:1001A0005F926F927F928F929F92AF92BF92CF9207
:1001B000DF92EF92FF920F931F93DF93CF9300D0C4
:1001C0000F92CDB7DEB787B18C6187B988B18C60EB
:1001D00088B984B1806C84B9209A579A8AB18066B4
:1001E0008AB989E190E09093C5008093C40088E9C2
:1001F0008093C10086E08093C20080E680937C00FB
:1002000080E880937A0080917A00806480937A00FD
:1002100083EA84BD82E085BD17BC18BC789419823E
:10022000BB24CC241B821A8200E010E0FF24F8E0FB
:100230007F2EE4E06E2E74E6D72E6AE0E62E5DE0B7
:10024000552E46E4442E37E4332E20E5A22E92E4C8
:10025000992E83E4882E04C01B821A8200E010E0ED
:1002600080910001882309F400C1809103018C343E
:10027000F9F08D3420F4813409F0F5C007C08D34D5
:1002800009F441C0833509F0EEC0E3C08091040158
:10029000863431F0803541F0823409F0E4C002C088
:1002A00085E003C081E001C080E06BD180D1DBC07C
:1002B00080910401823421F0823509F0D4C011C04C
:1002C00080910501833531F0843541F0823509F0A4
:1002D000CAC002C04398C7C0439AC5C088B1872529
:1002E00010C080910501833531F0843541F08235AD
:1002F00009F0B9C002C04298B6C0429AB4C088B1F1
:10030000862588B9B0C080910401843409F482C084
:10031000853420F4823409F085C007C0803569F146
:10032000833509F07FC0C9D19EC0609105018091DD
:10033000060120910701409108016053405D8D9DA9
:10034000C0011124480F2E9D90011124420F81E01D
:100350006CD16091090180910A0120910B014091BB
:100360000C016053405D8D9DC0011124480F2E9DEE
:1003700090011124420F82E06AC08091050182330E
:1003800031F0823431F1813309F06DC011C08091B8
:1003900006014091070120910801205D8D9DC0015B
:1003A0001124280F4E9DA0011124240F28BD5BC0ED
:1003B000809106014091070120910801205D8D9DEB
:1003C000C0011124280F4E9DA0011124240F27BD28
:1003D0004AC0209106014091070180910801805D8B
:1003E0002D9D90011124820F4E9DA0011124840F98
:1003F00087BD209106014091070180910801805D31
:100400002D9D90011124820F4E9DA0011124840F77
:1004100088BD29C080910501609106016053805319
:100420002BD121C08091040160910501209106012A
:10043000E0910701409108016053405D2D9D9001BE
:100440001124420FEE9DF00111244E0F8053EDD088
:100450000AC080910401823529F0833521F421E01E
:10046000298301C01982109200018A819B81019623
:100470009B838A838051974209F0F2CE0F5F1F4F12
:10048000033011051CF41B821A82EACE8091C00051
:1004900085FFFCCFF1E0FF1669F0FF1628F022E09F
:1004A000F21619F110E03BC080E06BD0182FA0923B
:1004B000C60035C085E065D0182F482F50E02B2DA1
:1004C00030E0C9014E96841795072CF02E5130402C
:1004D0004217530734F48981813019F43092C600F1
:1004E000ECD04092C600B12E1AC081E04AD0182F3D
:1004F000482F50E02C2D30E0C9014E968417950707
:100500002CF02E5130404217530734F4998191302A
:1005100019F48092C600D1D09092C600C12E80916D
:10052000C00085FFFCCF812F64E6CDD0805D809335
:10053000C6008091C00085FFFCCF812F64E6C3D048
:10054000892F6AE0C0D0805D8093C6008091C00092
:1005500085FFFCCF812F6AE0B6D0905D9093C600F6
:100560008091C00085FFFCCF5092C600F394E2E07A
:10057000EF1508F071CE1B821A8200E010E0FF2414
:100580006FCE90917C00907F90937C0090917C0046
:10059000982B90937C0080917A00806480937A00FD
:1005A00080917A0086FDFCCF809179000895282FF4
:1005B0008091C00085FFFCCF822F64E684D0805DEF
:1005C0008093C6008091C00085FFFCCF822F64E637
:1005D0007AD0892F6AE077D0805D8093C6008091C1
:1005E000C00085FFFCCF822F6AE06DD0905D9093B4
:1005F000C6008091C00085FFFCCF8DE08093C600CF
:100600000895FC0107C08091C00085FFFCCF909346
:10061000C600319690819923B1F78091C00085FF83
:10062000FCCF8DE08093C6000895823091F448BDE0
:10063000613061F0613018F06230E9F404C085B1D6
:100640008F7385B908952E982F9A08952E9A2F9812
:100650000895813081F447BD613041F0613018F078
:10066000623049F406C028985F98089528985F9AE8
:100670000895289A5F980895982F613061F061304D
:1006800018F0623051F404C085B18F7385B905C08C
:100690002E982F9A02C02E9A2F98913041F09130C7
:1006A00018F0923049F406C028985F980895289869
:1006B0005F9A0895289A5F98089585B18F7385B9D8
:1006C00028985F980895991B79E004C0991F9617A0
:1006D00008F0961B881F7A95C9F780950895F894BD
:0206E000FFCF4A
:00000001FF
